{
  "_format": "hh-sol-artifact-1",
  "contractName": "LandProcess",
  "sourceName": "contracts/LandProcess.sol",
  "abi": [
    {
      "inputs": [],
      "stateMutability": "nonpayable",
      "type": "constructor"
    },
    {
      "inputs": [],
      "name": "ReentrancyGuardReentrantCall",
      "type": "error"
    },
    {
      "anonymous": false,
      "inputs": [
        {
          "indexed": false,
          "internalType": "uint256",
          "name": "itemId",
          "type": "uint256"
        },
        {
          "indexed": true,
          "internalType": "address",
          "name": "nft",
          "type": "address"
        },
        {
          "indexed": false,
          "internalType": "uint256",
          "name": "tokenId",
          "type": "uint256"
        },
        {
          "indexed": false,
          "internalType": "uint256",
          "name": "price",
          "type": "uint256"
        },
        {
          "indexed": true,
          "internalType": "address",
          "name": "seller",
          "type": "address"
        },
        {
          "indexed": true,
          "internalType": "address",
          "name": "buyer",
          "type": "address"
        }
      ],
      "name": "Bought",
      "type": "event"
    },
    {
      "anonymous": false,
      "inputs": [
        {
          "indexed": false,
          "internalType": "uint256",
          "name": "itemId",
          "type": "uint256"
        },
        {
          "indexed": true,
          "internalType": "address",
          "name": "nft",
          "type": "address"
        },
        {
          "indexed": false,
          "internalType": "uint256",
          "name": "tokenId",
          "type": "uint256"
        },
        {
          "indexed": false,
          "internalType": "uint256",
          "name": "price",
          "type": "uint256"
        },
        {
          "indexed": true,
          "internalType": "address",
          "name": "seller",
          "type": "address"
        }
      ],
      "name": "Offered",
      "type": "event"
    },
    {
      "inputs": [],
      "name": "feeAccount",
      "outputs": [
        {
          "internalType": "address payable",
          "name": "",
          "type": "address"
        }
      ],
      "stateMutability": "view",
      "type": "function"
    },
    {
      "inputs": [],
      "name": "feePercent",
      "outputs": [
        {
          "internalType": "uint256",
          "name": "",
          "type": "uint256"
        }
      ],
      "stateMutability": "view",
      "type": "function"
    },
    {
      "inputs": [],
      "name": "getFeePercent",
      "outputs": [
        {
          "internalType": "uint256",
          "name": "",
          "type": "uint256"
        }
      ],
      "stateMutability": "view",
      "type": "function"
    },
    {
      "inputs": [],
      "name": "getItemCount",
      "outputs": [
        {
          "internalType": "uint256",
          "name": "",
          "type": "uint256"
        }
      ],
      "stateMutability": "view",
      "type": "function"
    },
    {
      "inputs": [
        {
          "internalType": "uint256",
          "name": "_itemId",
          "type": "uint256"
        }
      ],
      "name": "getTotalPrice",
      "outputs": [
        {
          "internalType": "uint256",
          "name": "",
          "type": "uint256"
        }
      ],
      "stateMutability": "view",
      "type": "function"
    },
    {
      "inputs": [],
      "name": "itemCount",
      "outputs": [
        {
          "internalType": "uint256",
          "name": "",
          "type": "uint256"
        }
      ],
      "stateMutability": "view",
      "type": "function"
    },
    {
      "inputs": [
        {
          "internalType": "uint256",
          "name": "",
          "type": "uint256"
        }
      ],
      "name": "items",
      "outputs": [
        {
          "internalType": "uint256",
          "name": "itemId",
          "type": "uint256"
        },
        {
          "internalType": "contract IERC721",
          "name": "nft",
          "type": "address"
        },
        {
          "internalType": "uint256",
          "name": "tokenId",
          "type": "uint256"
        },
        {
          "internalType": "uint256",
          "name": "price",
          "type": "uint256"
        },
        {
          "internalType": "address payable",
          "name": "seller",
          "type": "address"
        },
        {
          "internalType": "bool",
          "name": "sold",
          "type": "bool"
        }
      ],
      "stateMutability": "view",
      "type": "function"
    },
    {
      "inputs": [
        {
          "internalType": "contract IERC721",
          "name": "_nft",
          "type": "address"
        },
        {
          "internalType": "uint256",
          "name": "_tokenId",
          "type": "uint256"
        },
        {
          "internalType": "uint256",
          "name": "_price",
          "type": "uint256"
        }
      ],
      "name": "makeItem",
      "outputs": [],
      "stateMutability": "nonpayable",
      "type": "function"
    },
    {
      "inputs": [
        {
          "internalType": "uint256",
          "name": "_itemId",
          "type": "uint256"
        }
      ],
      "name": "purchaseItem",
      "outputs": [],
      "stateMutability": "payable",
      "type": "function"
    },
    {
      "inputs": [
        {
          "internalType": "uint256",
          "name": "_feePercent",
          "type": "uint256"
        }
      ],
      "name": "setFeePercent",
      "outputs": [],
      "stateMutability": "nonpayable",
      "type": "function"
    }
  ],
  "bytecode": "0x60a06040526001805534801561001457600080fd5b5060016000819055503373ffffffffffffffffffffffffffffffffffffffff1660808173ffffffffffffffffffffffffffffffffffffffff16815250506080516110616100736000396000818161025c01526104f901526110616000f3fe6080604052600436106100915760003560e01c8063be74264d11610059578063be74264d1461016b578063bfb231d214610196578063ca7dd375146101d8578063d38ea5bf14610215578063fa00afc71461023157610091565b806365e17c9d146100965780636bfb0d01146100c15780637749cf23146100ec5780637ce3489b146101175780637fd6f15c14610140575b600080fd5b3480156100a257600080fd5b506100ab61025a565b6040516100b89190610a1b565b60405180910390f35b3480156100cd57600080fd5b506100d661027e565b6040516100e39190610a4f565b60405180910390f35b3480156100f857600080fd5b50610101610284565b60405161010e9190610a4f565b60405180910390f35b34801561012357600080fd5b5061013e60048036038101906101399190610a9b565b61028e565b005b34801561014c57600080fd5b50610155610298565b6040516101629190610a4f565b60405180910390f35b34801561017757600080fd5b5061018061029e565b60405161018d9190610a4f565b60405180910390f35b3480156101a257600080fd5b506101bd60048036038101906101b89190610a9b565b6102a8565b6040516101cf96959493929190610b42565b60405180910390f35b3480156101e457600080fd5b506101ff60048036038101906101fa9190610a9b565b610331565b60405161020c9190610a4f565b60405180910390f35b61022f600480360381019061022a9190610a9b565b610376565b005b34801561023d57600080fd5b5061025860048036038101906102539190610bf3565b6106fe565b005b7f000000000000000000000000000000000000000000000000000000000000000081565b60025481565b6000600254905090565b8060018190555050565b60015481565b6000600154905090565b60036020528060005260406000206000915090508060000154908060010160009054906101000a900473ffffffffffffffffffffffffffffffffffffffff16908060020154908060030154908060040160009054906101000a900473ffffffffffffffffffffffffffffffffffffffff16908060040160149054906101000a900460ff16905086565b6000606460015460646103449190610c75565b60036000858152602001908152602001600020600301546103659190610ca9565b61036f9190610d1a565b9050919050565b61037e61098a565b600061038982610331565b905060006003600084815260200190815260200160002090506000831180156103b457506002548311155b6103f3576040517f08c379a00000000000000000000000000000000000000000000000000000000081526004016103ea90610da8565b60405180910390fd5b81341015610436576040517f08c379a000000000000000000000000000000000000000000000000000000000815260040161042d90610e3a565b60405180910390fd5b8060040160149054906101000a900460ff1615610488576040517f08c379a000000000000000000000000000000000000000000000000000000000815260040161047f90610ea6565b60405180910390fd5b8060040160009054906101000a900473ffffffffffffffffffffffffffffffffffffffff1673ffffffffffffffffffffffffffffffffffffffff166108fc82600301549081150290604051600060405180830381858888f193505050501580156104f6573d6000803e3d6000fd5b507f000000000000000000000000000000000000000000000000000000000000000073ffffffffffffffffffffffffffffffffffffffff166108fc8260030154846105419190610ec6565b9081150290604051600060405180830381858888f1935050505015801561056c573d6000803e3d6000fd5b5060018160040160146101000a81548160ff0219169083151502179055508060010160009054906101000a900473ffffffffffffffffffffffffffffffffffffffff1673ffffffffffffffffffffffffffffffffffffffff166323b872dd303384600201546040518463ffffffff1660e01b81526004016105ef93929190610f09565b600060405180830381600087803b15801561060957600080fd5b505af115801561061d573d6000803e3d6000fd5b505050503373ffffffffffffffffffffffffffffffffffffffff168160040160009054906101000a900473ffffffffffffffffffffffffffffffffffffffff1673ffffffffffffffffffffffffffffffffffffffff168260010160009054906101000a900473ffffffffffffffffffffffffffffffffffffffff1673ffffffffffffffffffffffffffffffffffffffff167f8b4c9c8a607d67b321582dd8461041b1dc2ceeca70c8b7f37f8e02095cf2e76d86856002015486600301546040516106e993929190610f40565b60405180910390a450506106fb6109d0565b50565b61070661098a565b60008111610749576040517f08c379a000000000000000000000000000000000000000000000000000000000815260040161074090610fc3565b60405180910390fd5b6002600081548092919061075c90610fe3565b91905055508273ffffffffffffffffffffffffffffffffffffffff166323b872dd3330856040518463ffffffff1660e01b815260040161079e93929190610f09565b600060405180830381600087803b1580156107b857600080fd5b505af11580156107cc573d6000803e3d6000fd5b505050506040518060c0016040528060025481526020018473ffffffffffffffffffffffffffffffffffffffff1681526020018381526020018281526020013373ffffffffffffffffffffffffffffffffffffffff168152602001600015158152506003600060025481526020019081526020016000206000820151816000015560208201518160010160006101000a81548173ffffffffffffffffffffffffffffffffffffffff021916908373ffffffffffffffffffffffffffffffffffffffff160217905550604082015181600201556060820151816003015560808201518160040160006101000a81548173ffffffffffffffffffffffffffffffffffffffff021916908373ffffffffffffffffffffffffffffffffffffffff16021790555060a08201518160040160146101000a81548160ff0219169083151502179055509050503373ffffffffffffffffffffffffffffffffffffffff168373ffffffffffffffffffffffffffffffffffffffff167f655a0cf9c8db81512be9a76dc1c5ae5380b8816ce6ad659cd61b715e2999d59a600254858560405161097593929190610f40565b60405180910390a36109856109d0565b505050565b6002600054036109c6576040517f3ee5aeb500000000000000000000000000000000000000000000000000000000815260040160405180910390fd5b6002600081905550565b6001600081905550565b600073ffffffffffffffffffffffffffffffffffffffff82169050919050565b6000610a05826109da565b9050919050565b610a15816109fa565b82525050565b6000602082019050610a306000830184610a0c565b92915050565b6000819050919050565b610a4981610a36565b82525050565b6000602082019050610a646000830184610a40565b92915050565b600080fd5b610a7881610a36565b8114610a8357600080fd5b50565b600081359050610a9581610a6f565b92915050565b600060208284031215610ab157610ab0610a6a565b5b6000610abf84828501610a86565b91505092915050565b6000819050919050565b6000610aed610ae8610ae3846109da565b610ac8565b6109da565b9050919050565b6000610aff82610ad2565b9050919050565b6000610b1182610af4565b9050919050565b610b2181610b06565b82525050565b60008115159050919050565b610b3c81610b27565b82525050565b600060c082019050610b576000830189610a40565b610b646020830188610b18565b610b716040830187610a40565b610b7e6060830186610a40565b610b8b6080830185610a0c565b610b9860a0830184610b33565b979650505050505050565b6000610bae826109da565b9050919050565b6000610bc082610ba3565b9050919050565b610bd081610bb5565b8114610bdb57600080fd5b50565b600081359050610bed81610bc7565b92915050565b600080600060608486031215610c0c57610c0b610a6a565b5b6000610c1a86828701610bde565b9350506020610c2b86828701610a86565b9250506040610c3c86828701610a86565b9150509250925092565b7f4e487b7100000000000000000000000000000000000000000000000000000000600052601160045260246000fd5b6000610c8082610a36565b9150610c8b83610a36565b9250828201905080821115610ca357610ca2610c46565b5b92915050565b6000610cb482610a36565b9150610cbf83610a36565b9250828202610ccd81610a36565b91508282048414831517610ce457610ce3610c46565b5b5092915050565b7f4e487b7100000000000000000000000000000000000000000000000000000000600052601260045260246000fd5b6000610d2582610a36565b9150610d3083610a36565b925082610d4057610d3f610ceb565b5b828204905092915050565b600082825260208201905092915050565b7f4c616e6420646f65736e27742065786973740000000000000000000000000000600082015250565b6000610d92601283610d4b565b9150610d9d82610d5c565b602082019050919050565b60006020820190508181036000830152610dc181610d85565b9050919050565b7f6e6f7420656e6f75676820657468657220746f20636f766572206974656d207060008201527f7269636520616e64206d61726b65742066656500000000000000000000000000602082015250565b6000610e24603383610d4b565b9150610e2f82610dc8565b604082019050919050565b60006020820190508181036000830152610e5381610e17565b9050919050565b7f4c616e6420616c726561647920736f6c64000000000000000000000000000000600082015250565b6000610e90601183610d4b565b9150610e9b82610e5a565b602082019050919050565b60006020820190508181036000830152610ebf81610e83565b9050919050565b6000610ed182610a36565b9150610edc83610a36565b9250828203905081811115610ef457610ef3610c46565b5b92915050565b610f0381610ba3565b82525050565b6000606082019050610f1e6000830186610efa565b610f2b6020830185610efa565b610f386040830184610a40565b949350505050565b6000606082019050610f556000830186610a40565b610f626020830185610a40565b610f6f6040830184610a40565b949350505050565b7f5072696365206d7573742062652067726561746572207468616e207a65726f00600082015250565b6000610fad601f83610d4b565b9150610fb882610f77565b602082019050919050565b60006020820190508181036000830152610fdc81610fa0565b9050919050565b6000610fee82610a36565b91507fffffffffffffffffffffffffffffffffffffffffffffffffffffffffffffffff82036110205761101f610c46565b5b60018201905091905056fea264697066735822122051ab266f0bd94cf4ad17514e8be94a7a319a00486d63108e3c1a2e06e1ce0e9d64736f6c63430008140033",
  "linkReferences": {},
  "deployedLinkReferences": {}
}