{
  "_format": "hh-sol-artifact-1",
  "contractName": "Land",
  "sourceName": "contracts/Land.sol",
  "abi": [
    {
      "inputs": [],
      "stateMutability": "nonpayable",
      "type": "constructor"
    },
    {
      "inputs": [
        {
          "internalType": "address",
          "name": "sender",
          "type": "address"
        },
        {
          "internalType": "uint256",
          "name": "tokenId",
          "type": "uint256"
        },
        {
          "internalType": "address",
          "name": "owner",
          "type": "address"
        }
      ],
      "name": "ERC721IncorrectOwner",
      "type": "error"
    },
    {
      "inputs": [
        {
          "internalType": "address",
          "name": "operator",
          "type": "address"
        },
        {
          "internalType": "uint256",
          "name": "tokenId",
          "type": "uint256"
        }
      ],
      "name": "ERC721InsufficientApproval",
      "type": "error"
    },
    {
      "inputs": [
        {
          "internalType": "address",
          "name": "approver",
          "type": "address"
        }
      ],
      "name": "ERC721InvalidApprover",
      "type": "error"
    },
    {
      "inputs": [
        {
          "internalType": "address",
          "name": "operator",
          "type": "address"
        }
      ],
      "name": "ERC721InvalidOperator",
      "type": "error"
    },
    {
      "inputs": [
        {
          "internalType": "address",
          "name": "owner",
          "type": "address"
        }
      ],
      "name": "ERC721InvalidOwner",
      "type": "error"
    },
    {
      "inputs": [
        {
          "internalType": "address",
          "name": "receiver",
          "type": "address"
        }
      ],
      "name": "ERC721InvalidReceiver",
      "type": "error"
    },
    {
      "inputs": [
        {
          "internalType": "address",
          "name": "sender",
          "type": "address"
        }
      ],
      "name": "ERC721InvalidSender",
      "type": "error"
    },
    {
      "inputs": [
        {
          "internalType": "uint256",
          "name": "tokenId",
          "type": "uint256"
        }
      ],
      "name": "ERC721NonexistentToken",
      "type": "error"
    },
    {
      "anonymous": false,
      "inputs": [
        {
          "indexed": true,
          "internalType": "address",
          "name": "owner",
          "type": "address"
        },
        {
          "indexed": true,
          "internalType": "address",
          "name": "approved",
          "type": "address"
        },
        {
          "indexed": true,
          "internalType": "uint256",
          "name": "tokenId",
          "type": "uint256"
        }
      ],
      "name": "Approval",
      "type": "event"
    },
    {
      "anonymous": false,
      "inputs": [
        {
          "indexed": true,
          "internalType": "address",
          "name": "owner",
          "type": "address"
        },
        {
          "indexed": true,
          "internalType": "address",
          "name": "operator",
          "type": "address"
        },
        {
          "indexed": false,
          "internalType": "bool",
          "name": "approved",
          "type": "bool"
        }
      ],
      "name": "ApprovalForAll",
      "type": "event"
    },
    {
      "anonymous": false,
      "inputs": [
        {
          "indexed": false,
          "internalType": "uint256",
          "name": "_fromTokenId",
          "type": "uint256"
        },
        {
          "indexed": false,
          "internalType": "uint256",
          "name": "_toTokenId",
          "type": "uint256"
        }
      ],
      "name": "BatchMetadataUpdate",
      "type": "event"
    },
    {
      "anonymous": false,
      "inputs": [
        {
          "indexed": false,
          "internalType": "uint256",
          "name": "_tokenId",
          "type": "uint256"
        }
      ],
      "name": "MetadataUpdate",
      "type": "event"
    },
    {
      "anonymous": false,
      "inputs": [
        {
          "indexed": true,
          "internalType": "address",
          "name": "from",
          "type": "address"
        },
        {
          "indexed": true,
          "internalType": "address",
          "name": "to",
          "type": "address"
        },
        {
          "indexed": true,
          "internalType": "uint256",
          "name": "tokenId",
          "type": "uint256"
        }
      ],
      "name": "Transfer",
      "type": "event"
    },
    {
      "inputs": [
        {
          "internalType": "address",
          "name": "to",
          "type": "address"
        },
        {
          "internalType": "uint256",
          "name": "tokenId",
          "type": "uint256"
        }
      ],
      "name": "approve",
      "outputs": [],
      "stateMutability": "nonpayable",
      "type": "function"
    },
    {
      "inputs": [
        {
          "internalType": "address",
          "name": "owner",
          "type": "address"
        }
      ],
      "name": "balanceOf",
      "outputs": [
        {
          "internalType": "uint256",
          "name": "",
          "type": "uint256"
        }
      ],
      "stateMutability": "view",
      "type": "function"
    },
    {
      "inputs": [
        {
          "internalType": "uint256",
          "name": "tokenId",
          "type": "uint256"
        }
      ],
      "name": "getApproved",
      "outputs": [
        {
          "internalType": "address",
          "name": "",
          "type": "address"
        }
      ],
      "stateMutability": "view",
      "type": "function"
    },
    {
      "inputs": [
        {
          "internalType": "address",
          "name": "owner",
          "type": "address"
        },
        {
          "internalType": "address",
          "name": "operator",
          "type": "address"
        }
      ],
      "name": "isApprovedForAll",
      "outputs": [
        {
          "internalType": "bool",
          "name": "",
          "type": "bool"
        }
      ],
      "stateMutability": "view",
      "type": "function"
    },
    {
      "inputs": [
        {
          "internalType": "string",
          "name": "tokenURI",
          "type": "string"
        }
      ],
      "name": "mint",
      "outputs": [
        {
          "internalType": "uint256",
          "name": "",
          "type": "uint256"
        }
      ],
      "stateMutability": "nonpayable",
      "type": "function"
    },
    {
      "inputs": [],
      "name": "name",
      "outputs": [
        {
          "internalType": "string",
          "name": "",
          "type": "string"
        }
      ],
      "stateMutability": "view",
      "type": "function"
    },
    {
      "inputs": [
        {
          "internalType": "uint256",
          "name": "tokenId",
          "type": "uint256"
        }
      ],
      "name": "ownerOf",
      "outputs": [
        {
          "internalType": "address",
          "name": "",
          "type": "address"
        }
      ],
      "stateMutability": "view",
      "type": "function"
    },
    {
      "inputs": [
        {
          "internalType": "address",
          "name": "from",
          "type": "address"
        },
        {
          "internalType": "address",
          "name": "to",
          "type": "address"
        },
        {
          "internalType": "uint256",
          "name": "tokenId",
          "type": "uint256"
        }
      ],
      "name": "safeTransferFrom",
      "outputs": [],
      "stateMutability": "nonpayable",
      "type": "function"
    },
    {
      "inputs": [
        {
          "internalType": "address",
          "name": "from",
          "type": "address"
        },
        {
          "internalType": "address",
          "name": "to",
          "type": "address"
        },
        {
          "internalType": "uint256",
          "name": "tokenId",
          "type": "uint256"
        },
        {
          "internalType": "bytes",
          "name": "data",
          "type": "bytes"
        }
      ],
      "name": "safeTransferFrom",
      "outputs": [],
      "stateMutability": "nonpayable",
      "type": "function"
    },
    {
      "inputs": [
        {
          "internalType": "address",
          "name": "operator",
          "type": "address"
        },
        {
          "internalType": "bool",
          "name": "approved",
          "type": "bool"
        }
      ],
      "name": "setApprovalForAll",
      "outputs": [],
      "stateMutability": "nonpayable",
      "type": "function"
    },
    {
      "inputs": [
        {
          "internalType": "bytes4",
          "name": "interfaceId",
          "type": "bytes4"
        }
      ],
      "name": "supportsInterface",
      "outputs": [
        {
          "internalType": "bool",
          "name": "",
          "type": "bool"
        }
      ],
      "stateMutability": "view",
      "type": "function"
    },
    {
      "inputs": [],
      "name": "symbol",
      "outputs": [
        {
          "internalType": "string",
          "name": "",
          "type": "string"
        }
      ],
      "stateMutability": "view",
      "type": "function"
    },
    {
      "inputs": [
        {
          "internalType": "uint256",
          "name": "tokenId",
          "type": "uint256"
        }
      ],
      "name": "tokenURI",
      "outputs": [
        {
          "internalType": "string",
          "name": "",
          "type": "string"
        }
      ],
      "stateMutability": "view",
      "type": "function"
    },
    {
      "inputs": [],
      "name": "totalSupply",
      "outputs": [
        {
          "internalType": "uint256",
          "name": "",
          "type": "uint256"
        }
      ],
      "stateMutability": "view",
      "type": "function"
    },
    {
      "inputs": [
        {
          "internalType": "address",
          "name": "from",
          "type": "address"
        },
        {
          "internalType": "address",
          "name": "to",
          "type": "address"
        },
        {
          "internalType": "uint256",
          "name": "tokenId",
          "type": "uint256"
        }
      ],
      "name": "transferFrom",
      "outputs": [],
      "stateMutability": "nonpayable",
      "type": "function"
    }
  ],
  "bytecode": "0x60806040523480156200001157600080fd5b506040518060400160405280600781526020017f4d79204c616e64000000000000000000000000000000000000000000000000008152506040518060400160405280600281526020017f4d4c00000000000000000000000000000000000000000000000000000000000081525081600090816200008f919062000324565b508060019081620000a1919062000324565b5050506200040b565b600081519050919050565b7f4e487b7100000000000000000000000000000000000000000000000000000000600052604160045260246000fd5b7f4e487b7100000000000000000000000000000000000000000000000000000000600052602260045260246000fd5b600060028204905060018216806200012c57607f821691505b602082108103620001425762000141620000e4565b5b50919050565b60008190508160005260206000209050919050565b60006020601f8301049050919050565b600082821b905092915050565b600060088302620001ac7fffffffffffffffffffffffffffffffffffffffffffffffffffffffffffffffff826200016d565b620001b886836200016d565b95508019841693508086168417925050509392505050565b6000819050919050565b6000819050919050565b600062000205620001ff620001f984620001d0565b620001da565b620001d0565b9050919050565b6000819050919050565b6200022183620001e4565b6200023962000230826200020c565b8484546200017a565b825550505050565b600090565b6200025062000241565b6200025d81848462000216565b505050565b5b8181101562000285576200027960008262000246565b60018101905062000263565b5050565b601f821115620002d4576200029e8162000148565b620002a9846200015d565b81016020851015620002b9578190505b620002d1620002c8856200015d565b83018262000262565b50505b505050565b600082821c905092915050565b6000620002f960001984600802620002d9565b1980831691505092915050565b6000620003148383620002e6565b9150826002028217905092915050565b6200032f82620000aa565b67ffffffffffffffff8111156200034b576200034a620000b5565b5b62000357825462000113565b6200036482828562000289565b600060209050601f8311600181146200039c576000841562000387578287015190505b62000393858262000306565b86555062000403565b601f198416620003ac8662000148565b60005b82811015620003d657848901518255600182019150602085019450602081019050620003af565b86831015620003f65784890151620003f2601f891682620002e6565b8355505b6001600288020188555050505b505050505050565b61238d806200041b6000396000f3fe608060405234801561001057600080fd5b50600436106100f55760003560e01c80636352211e11610097578063b88d4fde11610066578063b88d4fde14610284578063c87b56dd146102a0578063d85d3d27146102d0578063e985e9c514610300576100f5565b80636352211e146101ea57806370a082311461021a57806395d89b411461024a578063a22cb46514610268576100f5565b8063095ea7b3116100d3578063095ea7b31461017857806318160ddd1461019457806323b872dd146101b257806342842e0e146101ce576100f5565b806301ffc9a7146100fa57806306fdde031461012a578063081812fc14610148575b600080fd5b610114600480360381019061010f919061186f565b610330565b60405161012191906118b7565b60405180910390f35b610132610391565b60405161013f9190611962565b60405180910390f35b610162600480360381019061015d91906119ba565b610423565b60405161016f9190611a28565b60405180910390f35b610192600480360381019061018d9190611a6f565b61043f565b005b61019c610455565b6040516101a99190611abe565b60405180910390f35b6101cc60048036038101906101c79190611ad9565b610466565b005b6101e860048036038101906101e39190611ad9565b610568565b005b61020460048036038101906101ff91906119ba565b610588565b6040516102119190611a28565b60405180910390f35b610234600480360381019061022f9190611b2c565b61059a565b6040516102419190611abe565b60405180910390f35b610252610654565b60405161025f9190611962565b60405180910390f35b610282600480360381019061027d9190611b85565b6106e6565b005b61029e60048036038101906102999190611cfa565b6106fc565b005b6102ba60048036038101906102b591906119ba565b610719565b6040516102c79190611962565b60405180910390f35b6102ea60048036038101906102e59190611e1e565b61082c565b6040516102f79190611abe565b60405180910390f35b61031a60048036038101906103159190611e67565b610863565b60405161032791906118b7565b60405180910390f35b6000634906490660e01b7bffffffffffffffffffffffffffffffffffffffffffffffffffffffff1916827bffffffffffffffffffffffffffffffffffffffffffffffffffffffff1916148061038a5750610389826108f7565b5b9050919050565b6060600080546103a090611ed6565b80601f01602080910402602001604051908101604052809291908181526020018280546103cc90611ed6565b80156104195780601f106103ee57610100808354040283529160200191610419565b820191906000526020600020905b8154815290600101906020018083116103fc57829003601f168201915b5050505050905090565b600061042e826109d9565b5061043882610a61565b9050919050565b610451828261044c610a9e565b610aa6565b5050565b60006104616007610ab8565b905090565b600073ffffffffffffffffffffffffffffffffffffffff168273ffffffffffffffffffffffffffffffffffffffff16036104d85760006040517f64a0ae920000000000000000000000000000000000000000000000000000000081526004016104cf9190611a28565b60405180910390fd5b60006104ec83836104e7610a9e565b610ac6565b90508373ffffffffffffffffffffffffffffffffffffffff168173ffffffffffffffffffffffffffffffffffffffff1614610562578382826040517f64283d7b00000000000000000000000000000000000000000000000000000000815260040161055993929190611f07565b60405180910390fd5b50505050565b610583838383604051806020016040528060008152506106fc565b505050565b6000610593826109d9565b9050919050565b60008073ffffffffffffffffffffffffffffffffffffffff168273ffffffffffffffffffffffffffffffffffffffff160361060d5760006040517f89c62b640000000000000000000000000000000000000000000000000000000081526004016106049190611a28565b60405180910390fd5b600360008373ffffffffffffffffffffffffffffffffffffffff1673ffffffffffffffffffffffffffffffffffffffff168152602001908152602001600020549050919050565b60606001805461066390611ed6565b80601f016020809104026020016040519081016040528092919081815260200182805461068f90611ed6565b80156106dc5780601f106106b1576101008083540402835291602001916106dc565b820191906000526020600020905b8154815290600101906020018083116106bf57829003601f168201915b5050505050905090565b6106f86106f1610a9e565b8383610ce0565b5050565b610707848484610466565b61071384848484610e4f565b50505050565b6060610724826109d9565b50600060066000848152602001908152602001600020805461074590611ed6565b80601f016020809104026020016040519081016040528092919081815260200182805461077190611ed6565b80156107be5780601f10610793576101008083540402835291602001916107be565b820191906000526020600020905b8154815290600101906020018083116107a157829003601f168201915b5050505050905060006107cf611006565b905060008151036107e4578192505050610827565b600082511115610819578082604051602001610801929190611f7a565b60405160208183030381529060405292505050610827565b6108228461101d565b925050505b919050565b60006108386007611086565b60006108446007610ab8565b9050610850338261109c565b61085a8184611195565b80915050919050565b6000600560008473ffffffffffffffffffffffffffffffffffffffff1673ffffffffffffffffffffffffffffffffffffffff16815260200190815260200160002060008373ffffffffffffffffffffffffffffffffffffffff1673ffffffffffffffffffffffffffffffffffffffff16815260200190815260200160002060009054906101000a900460ff16905092915050565b60007f80ac58cd000000000000000000000000000000000000000000000000000000007bffffffffffffffffffffffffffffffffffffffffffffffffffffffff1916827bffffffffffffffffffffffffffffffffffffffffffffffffffffffff191614806109c257507f5b5e139f000000000000000000000000000000000000000000000000000000007bffffffffffffffffffffffffffffffffffffffffffffffffffffffff1916827bffffffffffffffffffffffffffffffffffffffffffffffffffffffff1916145b806109d257506109d1826111f1565b5b9050919050565b6000806109e58361125b565b9050600073ffffffffffffffffffffffffffffffffffffffff168173ffffffffffffffffffffffffffffffffffffffff1603610a5857826040517f7e273289000000000000000000000000000000000000000000000000000000008152600401610a4f9190611abe565b60405180910390fd5b80915050919050565b60006004600083815260200190815260200160002060009054906101000a900473ffffffffffffffffffffffffffffffffffffffff169050919050565b600033905090565b610ab38383836001611298565b505050565b600081600001549050919050565b600080610ad28461125b565b9050600073ffffffffffffffffffffffffffffffffffffffff168373ffffffffffffffffffffffffffffffffffffffff1614610b1457610b1381848661145d565b5b600073ffffffffffffffffffffffffffffffffffffffff168173ffffffffffffffffffffffffffffffffffffffff1614610ba557610b56600085600080611298565b6001600360008373ffffffffffffffffffffffffffffffffffffffff1673ffffffffffffffffffffffffffffffffffffffff168152602001908152602001600020600082825403925050819055505b600073ffffffffffffffffffffffffffffffffffffffff168573ffffffffffffffffffffffffffffffffffffffff1614610c28576001600360008773ffffffffffffffffffffffffffffffffffffffff1673ffffffffffffffffffffffffffffffffffffffff168152602001908152602001600020600082825401925050819055505b846002600086815260200190815260200160002060006101000a81548173ffffffffffffffffffffffffffffffffffffffff021916908373ffffffffffffffffffffffffffffffffffffffff160217905550838573ffffffffffffffffffffffffffffffffffffffff168273ffffffffffffffffffffffffffffffffffffffff167fddf252ad1be2c89b69c2b068fc378daa952ba7f163c4a11628f55a4df523b3ef60405160405180910390a4809150509392505050565b600073ffffffffffffffffffffffffffffffffffffffff168273ffffffffffffffffffffffffffffffffffffffff1603610d5157816040517f5b08ba18000000000000000000000000000000000000000000000000000000008152600401610d489190611a28565b60405180910390fd5b80600560008573ffffffffffffffffffffffffffffffffffffffff1673ffffffffffffffffffffffffffffffffffffffff16815260200190815260200160002060008473ffffffffffffffffffffffffffffffffffffffff1673ffffffffffffffffffffffffffffffffffffffff16815260200190815260200160002060006101000a81548160ff0219169083151502179055508173ffffffffffffffffffffffffffffffffffffffff168373ffffffffffffffffffffffffffffffffffffffff167f17307eab39ab6107e8899845ad3d59bd9653f200f220920489ca2b5937696c3183604051610e4291906118b7565b60405180910390a3505050565b60008373ffffffffffffffffffffffffffffffffffffffff163b1115611000578273ffffffffffffffffffffffffffffffffffffffff1663150b7a02610e93610a9e565b8685856040518563ffffffff1660e01b8152600401610eb59493929190611ff3565b6020604051808303816000875af1925050508015610ef157506040513d601f19601f82011682018060405250810190610eee9190612054565b60015b610f75573d8060008114610f21576040519150601f19603f3d011682016040523d82523d6000602084013e610f26565b606091505b506000815103610f6d57836040517f64a0ae92000000000000000000000000000000000000000000000000000000008152600401610f649190611a28565b60405180910390fd5b805181602001fd5b63150b7a0260e01b7bffffffffffffffffffffffffffffffffffffffffffffffffffffffff1916817bffffffffffffffffffffffffffffffffffffffffffffffffffffffff191614610ffe57836040517f64a0ae92000000000000000000000000000000000000000000000000000000008152600401610ff59190611a28565b60405180910390fd5b505b50505050565b606060405180602001604052806000815250905090565b6060611028826109d9565b506000611033611006565b90506000815111611053576040518060200160405280600081525061107e565b8061105d84611521565b60405160200161106e929190611f7a565b6040516020818303038152906040525b915050919050565b6001816000016000828254019250508190555050565b600073ffffffffffffffffffffffffffffffffffffffff168273ffffffffffffffffffffffffffffffffffffffff160361110e5760006040517f64a0ae920000000000000000000000000000000000000000000000000000000081526004016111059190611a28565b60405180910390fd5b600061111c83836000610ac6565b9050600073ffffffffffffffffffffffffffffffffffffffff168173ffffffffffffffffffffffffffffffffffffffff16146111905760006040517f73c6ac6e0000000000000000000000000000000000000000000000000000000081526004016111879190611a28565b60405180910390fd5b505050565b806006600084815260200190815260200160002090816111b5919061222d565b507ff8e1a15aba9398e019f0b49df1a4fde98ee17ae345cb5f6b5e2c27f5033e8ce7826040516111e59190611abe565b60405180910390a15050565b60007f01ffc9a7000000000000000000000000000000000000000000000000000000007bffffffffffffffffffffffffffffffffffffffffffffffffffffffff1916827bffffffffffffffffffffffffffffffffffffffffffffffffffffffff1916149050919050565b60006002600083815260200190815260200160002060009054906101000a900473ffffffffffffffffffffffffffffffffffffffff169050919050565b80806112d15750600073ffffffffffffffffffffffffffffffffffffffff168273ffffffffffffffffffffffffffffffffffffffff1614155b156114055760006112e1846109d9565b9050600073ffffffffffffffffffffffffffffffffffffffff168373ffffffffffffffffffffffffffffffffffffffff161415801561134c57508273ffffffffffffffffffffffffffffffffffffffff168173ffffffffffffffffffffffffffffffffffffffff1614155b801561135f575061135d8184610863565b155b156113a157826040517fa9fbf51f0000000000000000000000000000000000000000000000000000000081526004016113989190611a28565b60405180910390fd5b811561140357838573ffffffffffffffffffffffffffffffffffffffff168273ffffffffffffffffffffffffffffffffffffffff167f8c5be1e5ebec7d5bd14f71427d1e84f3dd0314c0f7b2291e5b200ac8c7c3b92560405160405180910390a45b505b836004600085815260200190815260200160002060006101000a81548173ffffffffffffffffffffffffffffffffffffffff021916908373ffffffffffffffffffffffffffffffffffffffff16021790555050505050565b6114688383836115ef565b61151c57600073ffffffffffffffffffffffffffffffffffffffff168373ffffffffffffffffffffffffffffffffffffffff16036114dd57806040517f7e2732890000000000000000000000000000000000000000000000000000000081526004016114d49190611abe565b60405180910390fd5b81816040517f177e802f0000000000000000000000000000000000000000000000000000000081526004016115139291906122ff565b60405180910390fd5b505050565b606060006001611530846116b0565b01905060008167ffffffffffffffff81111561154f5761154e611bcf565b5b6040519080825280601f01601f1916602001820160405280156115815781602001600182028036833780820191505090505b509050600082602001820190505b6001156115e4578080600190039150507f3031323334353637383961626364656600000000000000000000000000000000600a86061a8153600a85816115d8576115d7612328565b5b0494506000850361158f575b819350505050919050565b60008073ffffffffffffffffffffffffffffffffffffffff168373ffffffffffffffffffffffffffffffffffffffff16141580156116a757508273ffffffffffffffffffffffffffffffffffffffff168473ffffffffffffffffffffffffffffffffffffffff16148061166857506116678484610863565b5b806116a657508273ffffffffffffffffffffffffffffffffffffffff1661168e83610a61565b73ffffffffffffffffffffffffffffffffffffffff16145b5b90509392505050565b600080600090507a184f03e93ff9f4daa797ed6e38ed64bf6a1f010000000000000000831061170e577a184f03e93ff9f4daa797ed6e38ed64bf6a1f010000000000000000838161170457611703612328565b5b0492506040810190505b6d04ee2d6d415b85acef8100000000831061174b576d04ee2d6d415b85acef8100000000838161174157611740612328565b5b0492506020810190505b662386f26fc10000831061177a57662386f26fc1000083816117705761176f612328565b5b0492506010810190505b6305f5e10083106117a3576305f5e100838161179957611798612328565b5b0492506008810190505b61271083106117c85761271083816117be576117bd612328565b5b0492506004810190505b606483106117eb57606483816117e1576117e0612328565b5b0492506002810190505b600a83106117fa576001810190505b80915050919050565b6000604051905090565b600080fd5b600080fd5b60007fffffffff0000000000000000000000000000000000000000000000000000000082169050919050565b61184c81611817565b811461185757600080fd5b50565b60008135905061186981611843565b92915050565b6000602082840312156118855761188461180d565b5b60006118938482850161185a565b91505092915050565b60008115159050919050565b6118b18161189c565b82525050565b60006020820190506118cc60008301846118a8565b92915050565b600081519050919050565b600082825260208201905092915050565b60005b8381101561190c5780820151818401526020810190506118f1565b60008484015250505050565b6000601f19601f8301169050919050565b6000611934826118d2565b61193e81856118dd565b935061194e8185602086016118ee565b61195781611918565b840191505092915050565b6000602082019050818103600083015261197c8184611929565b905092915050565b6000819050919050565b61199781611984565b81146119a257600080fd5b50565b6000813590506119b48161198e565b92915050565b6000602082840312156119d0576119cf61180d565b5b60006119de848285016119a5565b91505092915050565b600073ffffffffffffffffffffffffffffffffffffffff82169050919050565b6000611a12826119e7565b9050919050565b611a2281611a07565b82525050565b6000602082019050611a3d6000830184611a19565b92915050565b611a4c81611a07565b8114611a5757600080fd5b50565b600081359050611a6981611a43565b92915050565b60008060408385031215611a8657611a8561180d565b5b6000611a9485828601611a5a565b9250506020611aa5858286016119a5565b9150509250929050565b611ab881611984565b82525050565b6000602082019050611ad36000830184611aaf565b92915050565b600080600060608486031215611af257611af161180d565b5b6000611b0086828701611a5a565b9350506020611b1186828701611a5a565b9250506040611b22868287016119a5565b9150509250925092565b600060208284031215611b4257611b4161180d565b5b6000611b5084828501611a5a565b91505092915050565b611b628161189c565b8114611b6d57600080fd5b50565b600081359050611b7f81611b59565b92915050565b60008060408385031215611b9c57611b9b61180d565b5b6000611baa85828601611a5a565b9250506020611bbb85828601611b70565b9150509250929050565b600080fd5b600080fd5b7f4e487b7100000000000000000000000000000000000000000000000000000000600052604160045260246000fd5b611c0782611918565b810181811067ffffffffffffffff82111715611c2657611c25611bcf565b5b80604052505050565b6000611c39611803565b9050611c458282611bfe565b919050565b600067ffffffffffffffff821115611c6557611c64611bcf565b5b611c6e82611918565b9050602081019050919050565b82818337600083830152505050565b6000611c9d611c9884611c4a565b611c2f565b905082815260208101848484011115611cb957611cb8611bca565b5b611cc4848285611c7b565b509392505050565b600082601f830112611ce157611ce0611bc5565b5b8135611cf1848260208601611c8a565b91505092915050565b60008060008060808587031215611d1457611d1361180d565b5b6000611d2287828801611a5a565b9450506020611d3387828801611a5a565b9350506040611d44878288016119a5565b925050606085013567ffffffffffffffff811115611d6557611d64611812565b5b611d7187828801611ccc565b91505092959194509250565b600067ffffffffffffffff821115611d9857611d97611bcf565b5b611da182611918565b9050602081019050919050565b6000611dc1611dbc84611d7d565b611c2f565b905082815260208101848484011115611ddd57611ddc611bca565b5b611de8848285611c7b565b509392505050565b600082601f830112611e0557611e04611bc5565b5b8135611e15848260208601611dae565b91505092915050565b600060208284031215611e3457611e3361180d565b5b600082013567ffffffffffffffff811115611e5257611e51611812565b5b611e5e84828501611df0565b91505092915050565b60008060408385031215611e7e57611e7d61180d565b5b6000611e8c85828601611a5a565b9250506020611e9d85828601611a5a565b9150509250929050565b7f4e487b7100000000000000000000000000000000000000000000000000000000600052602260045260246000fd5b60006002820490506001821680611eee57607f821691505b602082108103611f0157611f00611ea7565b5b50919050565b6000606082019050611f1c6000830186611a19565b611f296020830185611aaf565b611f366040830184611a19565b949350505050565b600081905092915050565b6000611f54826118d2565b611f5e8185611f3e565b9350611f6e8185602086016118ee565b80840191505092915050565b6000611f868285611f49565b9150611f928284611f49565b91508190509392505050565b600081519050919050565b600082825260208201905092915050565b6000611fc582611f9e565b611fcf8185611fa9565b9350611fdf8185602086016118ee565b611fe881611918565b840191505092915050565b60006080820190506120086000830187611a19565b6120156020830186611a19565b6120226040830185611aaf565b81810360608301526120348184611fba565b905095945050505050565b60008151905061204e81611843565b92915050565b60006020828403121561206a5761206961180d565b5b60006120788482850161203f565b91505092915050565b60008190508160005260206000209050919050565b60006020601f8301049050919050565b600082821b905092915050565b6000600883026120e37fffffffffffffffffffffffffffffffffffffffffffffffffffffffffffffffff826120a6565b6120ed86836120a6565b95508019841693508086168417925050509392505050565b6000819050919050565b600061212a61212561212084611984565b612105565b611984565b9050919050565b6000819050919050565b6121448361210f565b61215861215082612131565b8484546120b3565b825550505050565b600090565b61216d612160565b61217881848461213b565b505050565b5b8181101561219c57612191600082612165565b60018101905061217e565b5050565b601f8211156121e1576121b281612081565b6121bb84612096565b810160208510156121ca578190505b6121de6121d685612096565b83018261217d565b50505b505050565b600082821c905092915050565b6000612204600019846008026121e6565b1980831691505092915050565b600061221d83836121f3565b9150826002028217905092915050565b612236826118d2565b67ffffffffffffffff81111561224f5761224e611bcf565b5b6122598254611ed6565b6122648282856121a0565b600060209050601f8311600181146122975760008415612285578287015190505b61228f8582612211565b8655506122f7565b601f1984166122a586612081565b60005b828110156122cd578489015182556001820191506020850194506020810190506122a8565b868310156122ea57848901516122e6601f8916826121f3565b8355505b6001600288020188555050505b505050505050565b60006040820190506123146000830185611a19565b6123216020830184611aaf565b9392505050565b7f4e487b7100000000000000000000000000000000000000000000000000000000600052601260045260246000fdfea2646970667358221220f1da1ed8198a82b6af39560b2cf10999b58f5a2bdb0b71b9d80e5480d264078164736f6c63430008140033",
  "linkReferences": {},
  "deployedLinkReferences": {}
}